{
  "contractName": "IenaiBank",
  "abi": [
    {
      "inputs": [
        {
          "internalType": "contract Token",
          "name": "_token",
          "type": "address"
        }
      ],
      "stateMutability": "nonpayable",
      "type": "constructor"
    },
    {
      "anonymous": false,
      "inputs": [
        {
          "indexed": true,
          "internalType": "address",
          "name": "user",
          "type": "address"
        },
        {
          "indexed": false,
          "internalType": "uint256",
          "name": "etherAmount",
          "type": "uint256"
        },
        {
          "indexed": false,
          "internalType": "uint256",
          "name": "timeStart",
          "type": "uint256"
        }
      ],
      "name": "Deposit",
      "type": "event"
    },
    {
      "anonymous": false,
      "inputs": [
        {
          "indexed": true,
          "internalType": "address",
          "name": "user",
          "type": "address"
        },
        {
          "indexed": false,
          "internalType": "uint256",
          "name": "etherAmount",
          "type": "uint256"
        },
        {
          "indexed": false,
          "internalType": "uint256",
          "name": "depositTime",
          "type": "uint256"
        },
        {
          "indexed": false,
          "internalType": "uint256",
          "name": "interest",
          "type": "uint256"
        }
      ],
      "name": "Withdraw",
      "type": "event"
    },
    {
      "inputs": [
        {
          "internalType": "address",
          "name": "",
          "type": "address"
        }
      ],
      "name": "depositStart",
      "outputs": [
        {
          "internalType": "uint256",
          "name": "",
          "type": "uint256"
        }
      ],
      "stateMutability": "view",
      "type": "function",
      "constant": true
    },
    {
      "inputs": [
        {
          "internalType": "address",
          "name": "",
          "type": "address"
        }
      ],
      "name": "etherBalanceOf",
      "outputs": [
        {
          "internalType": "uint256",
          "name": "",
          "type": "uint256"
        }
      ],
      "stateMutability": "view",
      "type": "function",
      "constant": true
    },
    {
      "inputs": [
        {
          "internalType": "address",
          "name": "",
          "type": "address"
        }
      ],
      "name": "isDeposited",
      "outputs": [
        {
          "internalType": "bool",
          "name": "",
          "type": "bool"
        }
      ],
      "stateMutability": "view",
      "type": "function",
      "constant": true
    },
    {
      "inputs": [],
      "name": "deposit",
      "outputs": [],
      "stateMutability": "payable",
      "type": "function",
      "payable": true
    },
    {
      "inputs": [],
      "name": "withdraw",
      "outputs": [],
      "stateMutability": "payable",
      "type": "function",
      "payable": true
    }
  ],
  "bytecode": "0x60806040526301e33731600055662386f26fc1000060015534801561002357600080fd5b50604051610cee380380610cee833981810160405281019061004591906100a1565b80600260006101000a81548173ffffffffffffffffffffffffffffffffffffffff021916908373ffffffffffffffffffffffffffffffffffffffff1602179055505061012e565b60008151905061009b81610117565b92915050565b6000602082840312156100b7576100b6610112565b5b60006100c58482850161008c565b91505092915050565b60006100d9826100f2565b9050919050565b60006100eb826100ce565b9050919050565b600073ffffffffffffffffffffffffffffffffffffffff82169050919050565b600080fd5b610120816100e0565b811461012b57600080fd5b50565b610bb18061013d6000396000f3fe60806040526004361061004a5760003560e01c8063179fc99f1461004f5780633ccfd60b1461008c5780637373202414610096578063d0e30db0146100d3578063ff87930a146100dd575b600080fd5b34801561005b57600080fd5b506100766004803603810190610071919061077c565b61011a565b60405161008391906108a0565b60405180910390f35b610094610132565b005b3480156100a257600080fd5b506100bd60048036038101906100b8919061077c565b6104d6565b6040516100ca9190610845565b60405180910390f35b6100db6104f6565b005b3480156100e957600080fd5b5061010460048036038101906100ff919061077c565b61074f565b60405161011191906108a0565b60405180910390f35b60036020528060005260406000206000915090505481565b60011515600560003373ffffffffffffffffffffffffffffffffffffffff1673ffffffffffffffffffffffffffffffffffffffff16815260200190815260200160002060009054906101000a900460ff161515146101c5576040517f08c379a00000000000000000000000000000000000000000000000000000000081526004016101bc90610860565b60405180910390fd5b6000600360003373ffffffffffffffffffffffffffffffffffffffff1673ffffffffffffffffffffffffffffffffffffffff1681526020019081526020016000205490506000600460003373ffffffffffffffffffffffffffffffffffffffff1673ffffffffffffffffffffffffffffffffffffffff16815260200190815260200160002054426102569190610a0d565b90506000600154600360003373ffffffffffffffffffffffffffffffffffffffff1673ffffffffffffffffffffffffffffffffffffffff168152602001908152602001600020546102a79190610982565b6000546102b491906109b3565b9050600082826102c491906109b3565b90503373ffffffffffffffffffffffffffffffffffffffff166108fc859081150290604051600060405180830381858888f1935050505015801561030c573d6000803e3d6000fd5b50600260009054906101000a900473ffffffffffffffffffffffffffffffffffffffff1673ffffffffffffffffffffffffffffffffffffffff166340c10f1933836040518363ffffffff1660e01b815260040161036a92919061081c565b600060405180830381600087803b15801561038457600080fd5b505af1158015610398573d6000803e3d6000fd5b505050506000600460003373ffffffffffffffffffffffffffffffffffffffff1673ffffffffffffffffffffffffffffffffffffffff168152602001908152602001600020819055506000600360003373ffffffffffffffffffffffffffffffffffffffff1673ffffffffffffffffffffffffffffffffffffffff168152602001908152602001600020819055506000600560003373ffffffffffffffffffffffffffffffffffffffff1673ffffffffffffffffffffffffffffffffffffffff16815260200190815260200160002060006101000a81548160ff0219169083151502179055503373ffffffffffffffffffffffffffffffffffffffff167f02f25270a4d87bea75db541cdfe559334a275b4a233520ed6c0a2429667cca948585846040516104c8939291906108e4565b60405180910390a250505050565b60056020528060005260406000206000915054906101000a900460ff1681565b60001515600560003373ffffffffffffffffffffffffffffffffffffffff1673ffffffffffffffffffffffffffffffffffffffff16815260200190815260200160002060009054906101000a900460ff16151514610589576040517f08c379a000000000000000000000000000000000000000000000000000000000815260040161058090610880565b60405180910390fd5b34600360003373ffffffffffffffffffffffffffffffffffffffff1673ffffffffffffffffffffffffffffffffffffffff168152602001908152602001600020546105d4919061092c565b600360003373ffffffffffffffffffffffffffffffffffffffff1673ffffffffffffffffffffffffffffffffffffffff1681526020019081526020016000208190555042600460003373ffffffffffffffffffffffffffffffffffffffff1673ffffffffffffffffffffffffffffffffffffffff16815260200190815260200160002054610662919061092c565b600460003373ffffffffffffffffffffffffffffffffffffffff1673ffffffffffffffffffffffffffffffffffffffff168152602001908152602001600020819055506001600560003373ffffffffffffffffffffffffffffffffffffffff1673ffffffffffffffffffffffffffffffffffffffff16815260200190815260200160002060006101000a81548160ff0219169083151502179055503373ffffffffffffffffffffffffffffffffffffffff167f90890809c654f11d6e72a28fa60149770a0d11ec6c92319d6ceb2bb0a4ea1a1534426040516107459291906108bb565b60405180910390a2565b60046020528060005260406000206000915090505481565b60008135905061077681610b64565b92915050565b60006020828403121561079257610791610ae7565b5b60006107a084828501610767565b91505092915050565b6107b281610a41565b82525050565b6107c181610a53565b82525050565b60006107d460178361091b565b91506107df82610aec565b602082019050919050565b60006107f760218361091b565b915061080282610b15565b604082019050919050565b61081681610a7f565b82525050565b600060408201905061083160008301856107a9565b61083e602083018461080d565b9392505050565b600060208201905061085a60008301846107b8565b92915050565b60006020820190508181036000830152610879816107c7565b9050919050565b60006020820190508181036000830152610899816107ea565b9050919050565b60006020820190506108b5600083018461080d565b92915050565b60006040820190506108d0600083018561080d565b6108dd602083018461080d565b9392505050565b60006060820190506108f9600083018661080d565b610906602083018561080d565b610913604083018461080d565b949350505050565b600082825260208201905092915050565b600061093782610a7f565b915061094283610a7f565b9250827fffffffffffffffffffffffffffffffffffffffffffffffffffffffffffffffff0382111561097757610976610a89565b5b828201905092915050565b600061098d82610a7f565b915061099883610a7f565b9250826109a8576109a7610ab8565b5b828204905092915050565b60006109be82610a7f565b91506109c983610a7f565b9250817fffffffffffffffffffffffffffffffffffffffffffffffffffffffffffffffff0483118215151615610a0257610a01610a89565b5b828202905092915050565b6000610a1882610a7f565b9150610a2383610a7f565b925082821015610a3657610a35610a89565b5b828203905092915050565b6000610a4c82610a5f565b9050919050565b60008115159050919050565b600073ffffffffffffffffffffffffffffffffffffffff82169050919050565b6000819050919050565b7f4e487b7100000000000000000000000000000000000000000000000000000000600052601160045260246000fd5b7f4e487b7100000000000000000000000000000000000000000000000000000000600052601260045260246000fd5b600080fd5b7f4e6f20776974687374616e64696e67206465706f736974000000000000000000600082015250565b7f43616e63656c6c65642c204465706f73697420616c726561647920616374697660008201527f6500000000000000000000000000000000000000000000000000000000000000602082015250565b610b6d81610a41565b8114610b7857600080fd5b5056fea2646970667358221220f4b9f6b6f50d6de1e2dbbb8128abd16c00f70ff53e9c956dc19882e600bc426e64736f6c63430008070033",
  "immutableReferences": {},
  "source": "// SPDX-License-Identifier: MIT\n\npragma solidity ^0.8.0;\n\nimport './Token.sol';\n\ncontract IenaiBank {\n  uint secondsPerYear = 31668017;\n  uint totalSupply = 1e16;\n  Token private token;\n\n  mapping(address => uint) public etherBalanceOf;\n  mapping(address => uint) public depositStart;\n  mapping(address => bool) public isDeposited;\n\n  event Deposit(address indexed user, uint etherAmount, uint timeStart);\n  event Withdraw(address indexed user, uint etherAmount, uint depositTime, uint interest);\n\n\n  constructor(Token _token) {\n    token = _token;\n  }\n\n  function deposit() payable public {\n    require(isDeposited[msg.sender] == false, 'Cancelled, Deposit already active');\n    // @TODO: Set deposit minimum?\n    etherBalanceOf[msg.sender] = etherBalanceOf[msg.sender] + msg.value;\n    depositStart[msg.sender] = depositStart[msg.sender] + block.timestamp;\n    isDeposited[msg.sender] = true;\n    emit Deposit(msg.sender, msg.value, block.timestamp);\n  }\n\n  function withdraw() public payable {\n    require(isDeposited[msg.sender] == true, 'No withstanding deposit');\n    uint userBalance = etherBalanceOf[msg.sender];\n    // send principal ether back\n    uint depositTime = block.timestamp - depositStart[msg.sender];\n    // Calc interest\n    uint interestPerSecond = secondsPerYear * (etherBalanceOf[msg.sender] / totalSupply);\n    uint interest = interestPerSecond * depositTime;\n\n    // send dep and token profit\n    payable(msg.sender).transfer(userBalance);\n    token.mint(msg.sender, interest);\n\n    depositStart[msg.sender] = 0;\n    etherBalanceOf[msg.sender] = 0;\n    isDeposited[msg.sender] = false;\n\n    emit Withdraw(msg.sender, userBalance, depositTime, interest);\n  }\n}\n",
  "sourcePath": "/Users/osamamiro/defi/ienai-bank/contracts/IenaiBank.sol",
  "compiler": {
    "name": "solc",
    "version": "0.8.7+commit.e28d00a7.Emscripten.clang"
  },
  "schemaVersion": "3.2.0",
  "updatedAt": "2021-10-27T02:03:42.532Z",
  "networkType": "ethereum",
  "devdoc": {
    "kind": "dev",
    "methods": {},
    "version": 1
  },
  "userdoc": {
    "kind": "user",
    "methods": {},
    "version": 1
  }
}